{
  "_format": "hh-sol-artifact-1",
  "contractName": "MediChain",
  "sourceName": "contracts/MediChain.sol",
  "abi": [
    {
      "inputs": [
        {
          "internalType": "address",
          "name": "initialOwner",
          "type": "address"
        }
      ],
      "stateMutability": "nonpayable",
      "type": "constructor"
    },
    {
      "inputs": [
        {
          "internalType": "address",
          "name": "owner",
          "type": "address"
        }
      ],
      "name": "OwnableInvalidOwner",
      "type": "error"
    },
    {
      "inputs": [
        {
          "internalType": "address",
          "name": "account",
          "type": "address"
        }
      ],
      "name": "OwnableUnauthorizedAccount",
      "type": "error"
    },
    {
      "anonymous": false,
      "inputs": [
        {
          "indexed": true,
          "internalType": "bytes32",
          "name": "summaryHash",
          "type": "bytes32"
        },
        {
          "indexed": true,
          "internalType": "address",
          "name": "doctor",
          "type": "address"
        },
        {
          "indexed": true,
          "internalType": "bytes32",
          "name": "patientHash",
          "type": "bytes32"
        },
        {
          "indexed": false,
          "internalType": "uint256",
          "name": "timestamp",
          "type": "uint256"
        }
      ],
      "name": "ConsultationLogged",
      "type": "event"
    },
    {
      "anonymous": false,
      "inputs": [
        {
          "indexed": true,
          "internalType": "address",
          "name": "doctorAddress",
          "type": "address"
        }
      ],
      "name": "DoctorVerified",
      "type": "event"
    },
    {
      "anonymous": false,
      "inputs": [
        {
          "indexed": true,
          "internalType": "address",
          "name": "previousOwner",
          "type": "address"
        },
        {
          "indexed": true,
          "internalType": "address",
          "name": "newOwner",
          "type": "address"
        }
      ],
      "name": "OwnershipTransferred",
      "type": "event"
    },
    {
      "anonymous": false,
      "inputs": [
        {
          "indexed": true,
          "internalType": "address",
          "name": "userAddress",
          "type": "address"
        },
        {
          "indexed": false,
          "internalType": "bool",
          "name": "isBanned",
          "type": "bool"
        },
        {
          "indexed": false,
          "internalType": "string",
          "name": "userType",
          "type": "string"
        }
      ],
      "name": "UserBanStatusChanged",
      "type": "event"
    },
    {
      "inputs": [
        {
          "internalType": "bytes32",
          "name": "_summaryHash",
          "type": "bytes32"
        },
        {
          "internalType": "bytes32",
          "name": "_patientHash",
          "type": "bytes32"
        }
      ],
      "name": "addConsultationLog",
      "outputs": [],
      "stateMutability": "nonpayable",
      "type": "function"
    },
    {
      "inputs": [
        {
          "internalType": "address",
          "name": "",
          "type": "address"
        }
      ],
      "name": "bannedUsers",
      "outputs": [
        {
          "internalType": "bool",
          "name": "",
          "type": "bool"
        }
      ],
      "stateMutability": "view",
      "type": "function"
    },
    {
      "inputs": [
        {
          "internalType": "address",
          "name": "userAddress",
          "type": "address"
        }
      ],
      "name": "getUserType",
      "outputs": [
        {
          "internalType": "string",
          "name": "",
          "type": "string"
        }
      ],
      "stateMutability": "view",
      "type": "function"
    },
    {
      "inputs": [
        {
          "internalType": "address",
          "name": "doctorAddress",
          "type": "address"
        }
      ],
      "name": "isDoctorVerified",
      "outputs": [
        {
          "internalType": "bool",
          "name": "",
          "type": "bool"
        }
      ],
      "stateMutability": "view",
      "type": "function"
    },
    {
      "inputs": [
        {
          "internalType": "address",
          "name": "userAddress",
          "type": "address"
        }
      ],
      "name": "isUserBanned",
      "outputs": [
        {
          "internalType": "bool",
          "name": "",
          "type": "bool"
        }
      ],
      "stateMutability": "view",
      "type": "function"
    },
    {
      "inputs": [],
      "name": "owner",
      "outputs": [
        {
          "internalType": "address",
          "name": "",
          "type": "address"
        }
      ],
      "stateMutability": "view",
      "type": "function"
    },
    {
      "inputs": [
        {
          "internalType": "address",
          "name": "userAddress",
          "type": "address"
        },
        {
          "internalType": "string",
          "name": "userType",
          "type": "string"
        }
      ],
      "name": "registerUser",
      "outputs": [],
      "stateMutability": "nonpayable",
      "type": "function"
    },
    {
      "inputs": [],
      "name": "renounceOwnership",
      "outputs": [],
      "stateMutability": "nonpayable",
      "type": "function"
    },
    {
      "inputs": [
        {
          "internalType": "address",
          "name": "doctorAddress",
          "type": "address"
        }
      ],
      "name": "revokeDoctorVerification",
      "outputs": [],
      "stateMutability": "nonpayable",
      "type": "function"
    },
    {
      "inputs": [
        {
          "internalType": "address",
          "name": "userAddress",
          "type": "address"
        },
        {
          "internalType": "bool",
          "name": "isBanned",
          "type": "bool"
        }
      ],
      "name": "setUserBanStatus",
      "outputs": [],
      "stateMutability": "nonpayable",
      "type": "function"
    },
    {
      "inputs": [
        {
          "internalType": "address",
          "name": "newOwner",
          "type": "address"
        }
      ],
      "name": "transferOwnership",
      "outputs": [],
      "stateMutability": "nonpayable",
      "type": "function"
    },
    {
      "inputs": [
        {
          "internalType": "address",
          "name": "",
          "type": "address"
        }
      ],
      "name": "userTypes",
      "outputs": [
        {
          "internalType": "string",
          "name": "",
          "type": "string"
        }
      ],
      "stateMutability": "view",
      "type": "function"
    },
    {
      "inputs": [
        {
          "internalType": "address",
          "name": "",
          "type": "address"
        }
      ],
      "name": "verifiedDoctors",
      "outputs": [
        {
          "internalType": "bool",
          "name": "",
          "type": "bool"
        }
      ],
      "stateMutability": "view",
      "type": "function"
    },
    {
      "inputs": [
        {
          "internalType": "address",
          "name": "doctorAddress",
          "type": "address"
        }
      ],
      "name": "verifyDoctor",
      "outputs": [],
      "stateMutability": "nonpayable",
      "type": "function"
    }
  ],
  "bytecode": "0x60806040523480156200001157600080fd5b5060405162002b0a38038062002b0a833981810160405281019062000037919062000278565b80600073ffffffffffffffffffffffffffffffffffffffff168173ffffffffffffffffffffffffffffffffffffffff1603620000ad5760006040517f1e4fbdf7000000000000000000000000000000000000000000000000000000008152600401620000a49190620002bb565b60405180910390fd5b620000be816200014a60201b60201c565b506040518060400160405280600581526020017f61646d696e000000000000000000000000000000000000000000000000000000815250600360008373ffffffffffffffffffffffffffffffffffffffff1673ffffffffffffffffffffffffffffffffffffffff168152602001908152602001600020908162000142919062000552565b505062000639565b60008060009054906101000a900473ffffffffffffffffffffffffffffffffffffffff169050816000806101000a81548173ffffffffffffffffffffffffffffffffffffffff021916908373ffffffffffffffffffffffffffffffffffffffff1602179055508173ffffffffffffffffffffffffffffffffffffffff168173ffffffffffffffffffffffffffffffffffffffff167f8be0079c531659141344cd1fd0a4f28419497f9722a3daafe3b4186f6b6457e060405160405180910390a35050565b600080fd5b600073ffffffffffffffffffffffffffffffffffffffff82169050919050565b6000620002408262000213565b9050919050565b620002528162000233565b81146200025e57600080fd5b50565b600081519050620002728162000247565b92915050565b6000602082840312156200029157620002906200020e565b5b6000620002a18482850162000261565b91505092915050565b620002b58162000233565b82525050565b6000602082019050620002d26000830184620002aa565b92915050565b600081519050919050565b7f4e487b7100000000000000000000000000000000000000000000000000000000600052604160045260246000fd5b7f4e487b7100000000000000000000000000000000000000000000000000000000600052602260045260246000fd5b600060028204905060018216806200035a57607f821691505b60208210810362000370576200036f62000312565b5b50919050565b60008190508160005260206000209050919050565b60006020601f8301049050919050565b600082821b905092915050565b600060088302620003da7fffffffffffffffffffffffffffffffffffffffffffffffffffffffffffffffff826200039b565b620003e686836200039b565b95508019841693508086168417925050509392505050565b6000819050919050565b6000819050919050565b6000620004336200042d6200042784620003fe565b62000408565b620003fe565b9050919050565b6000819050919050565b6200044f8362000412565b620004676200045e826200043a565b848454620003a8565b825550505050565b600090565b6200047e6200046f565b6200048b81848462000444565b505050565b5b81811015620004b357620004a760008262000474565b60018101905062000491565b5050565b601f8211156200050257620004cc8162000376565b620004d7846200038b565b81016020851015620004e7578190505b620004ff620004f6856200038b565b83018262000490565b50505b505050565b600082821c905092915050565b6000620005276000198460080262000507565b1980831691505092915050565b600062000542838362000514565b9150826002028217905092915050565b6200055d82620002d8565b67ffffffffffffffff811115620005795762000578620002e3565b5b62000585825462000341565b62000592828285620004b7565b600060209050601f831160018114620005ca5760008415620005b5578287015190505b620005c1858262000534565b86555062000631565b601f198416620005da8662000376565b60005b828110156200060457848901518255600182019150602085019450602081019050620005dd565b8683101562000624578489015162000620601f89168262000514565b8355505b6001600288020188555050505b505050505050565b6124c180620006496000396000f3fe608060405234801561001057600080fd5b50600436106100ea5760003560e01c80638988d0781161008c5780639ed9b4fd116100665780639ed9b4fd14610247578063c727b3d914610277578063d80cb05c146102a7578063f2fde38b146102c3576100ea565b80638988d078146101c95780638b3f863f146101f95780638da5cb5b14610229576100ea565b80635af47c96116100c85780635af47c961461015757806367b8c31914610173578063715018a61461018f57806387cd273c14610199576100ea565b80630b13acdf146100ef5780630ea126f91461011f578063582b5f6f1461013b575b600080fd5b610109600480360381019061010491906114f1565b6102df565b6040516101169190611539565b60405180910390f35b6101396004803603810190610134919061169a565b61038b565b005b6101556004803603810190610150919061172c565b610531565b005b610171600480360381019061016c91906114f1565b610857565b005b61018d60048036038101906101889190611798565b6109f6565b005b610197610c7d565b005b6101b360048036038101906101ae91906114f1565b610c91565b6040516101c09190611857565b60405180910390f35b6101e360048036038101906101de91906114f1565b610d31565b6040516101f09190611539565b60405180910390f35b610213600480360381019061020e91906114f1565b610d51565b6040516102209190611857565b60405180910390f35b610231610e22565b60405161023e9190611888565b60405180910390f35b610261600480360381019061025c91906114f1565b610e4b565b60405161026e9190611539565b60405180910390f35b610291600480360381019061028c91906114f1565b610ea1565b60405161029e9190611539565b60405180910390f35b6102c160048036038101906102bc91906114f1565b610ec1565b005b6102dd60048036038101906102d891906114f1565b6112a6565b005b6000600160008373ffffffffffffffffffffffffffffffffffffffff1673ffffffffffffffffffffffffffffffffffffffff16815260200190815260200160002060009054906101000a900460ff1680156103845750600260008373ffffffffffffffffffffffffffffffffffffffff1673ffffffffffffffffffffffffffffffffffffffff16815260200190815260200160002060009054906101000a900460ff16155b9050919050565b610393610e22565b73ffffffffffffffffffffffffffffffffffffffff163373ffffffffffffffffffffffffffffffffffffffff1614610400576040517f08c379a00000000000000000000000000000000000000000000000000000000081526004016103f790611915565b60405180910390fd5b60405160200161040f9061198c565b604051602081830303815290604052805190602001208160405160200161043691906119d2565b6040516020818303038152906040528051906020012014806104a1575060405160200161046290611a35565b604051602081830303815290604052805190602001208160405160200161048991906119d2565b60405160208183030381529060405280519060200120145b6104e0576040517f08c379a00000000000000000000000000000000000000000000000000000000081526004016104d790611abc565b60405180910390fd5b80600360008473ffffffffffffffffffffffffffffffffffffffff1673ffffffffffffffffffffffffffffffffffffffff168152602001908152602001600020908161052c9190611cf2565b505050565b600160003373ffffffffffffffffffffffffffffffffffffffff1673ffffffffffffffffffffffffffffffffffffffff16815260200190815260200160002060009054906101000a900460ff166105bd576040517f08c379a00000000000000000000000000000000000000000000000000000000081526004016105b490611e36565b60405180910390fd5b600260003373ffffffffffffffffffffffffffffffffffffffff1673ffffffffffffffffffffffffffffffffffffffff16815260200190815260200160002060009054906101000a900460ff161561064a576040517f08c379a000000000000000000000000000000000000000000000000000000000815260040161064190611ec8565b60405180910390fd5b6000600360003373ffffffffffffffffffffffffffffffffffffffff1673ffffffffffffffffffffffffffffffffffffffff168152602001908152602001600020805461069690611b0b565b80601f01602080910402602001604051908101604052809291908181526020018280546106c290611b0b565b801561070f5780601f106106e45761010080835404028352916020019161070f565b820191906000526020600020905b8154815290600101906020018083116106f257829003601f168201915b5050505050905060006040516020016107279061198c565b604051602081830303815290604052805190602001208260405160200161074e91906119d2565b60405160208183030381529060405280519060200120149050600060405160200161077890611f0e565b604051602081830303815290604052805190602001208360405160200161079f91906119d2565b6040516020818303038152906040528051906020012014905081806107c15750805b610800576040517f08c379a00000000000000000000000000000000000000000000000000000000081526004016107f790611f95565b60405180910390fd5b833373ffffffffffffffffffffffffffffffffffffffff16867f0d8abf07ff9f36766e827d72aa90758cafeaf1c9465cbb737535207ff7f5f79c426040516108489190611fc4565b60405180910390a45050505050565b61085f610e22565b73ffffffffffffffffffffffffffffffffffffffff163373ffffffffffffffffffffffffffffffffffffffff16146108cc576040517f08c379a00000000000000000000000000000000000000000000000000000000081526004016108c390612051565b60405180910390fd5b600160008273ffffffffffffffffffffffffffffffffffffffff1673ffffffffffffffffffffffffffffffffffffffff16815260200190815260200160002060009054906101000a900460ff16610958576040517f08c379a000000000000000000000000000000000000000000000000000000000815260040161094f906120bd565b60405180910390fd5b6000600160008373ffffffffffffffffffffffffffffffffffffffff1673ffffffffffffffffffffffffffffffffffffffff16815260200190815260200160002060006101000a81548160ff0219169083151502179055508073ffffffffffffffffffffffffffffffffffffffff167fb0859f2cf042b300c8948cdd785ec6a23a3742bc5446c19f4b270b67fac2c96760405160405180910390a250565b6109fe610e22565b73ffffffffffffffffffffffffffffffffffffffff163373ffffffffffffffffffffffffffffffffffffffff1614610a6b576040517f08c379a0000000000000000000000000000000000000000000000000000000008152600401610a629061214f565b60405180910390fd5b610a73610e22565b73ffffffffffffffffffffffffffffffffffffffff168273ffffffffffffffffffffffffffffffffffffffff1603610ae0576040517f08c379a0000000000000000000000000000000000000000000000000000000008152600401610ad7906121bb565b60405180910390fd5b80600260008473ffffffffffffffffffffffffffffffffffffffff1673ffffffffffffffffffffffffffffffffffffffff16815260200190815260200160002060006101000a81548160ff021916908315150217905550808015610b8d5750600160008373ffffffffffffffffffffffffffffffffffffffff1673ffffffffffffffffffffffffffffffffffffffff16815260200190815260200160002060009054906101000a900460ff165b15610beb576000600160008473ffffffffffffffffffffffffffffffffffffffff1673ffffffffffffffffffffffffffffffffffffffff16815260200190815260200160002060006101000a81548160ff0219169083151502179055505b8173ffffffffffffffffffffffffffffffffffffffff167f483a1c4c160b24fe099411efe11b96d7fb53b610ebef8d7b1417b9b70a4641da82600360008673ffffffffffffffffffffffffffffffffffffffff1673ffffffffffffffffffffffffffffffffffffffff168152602001908152602001600020604051610c7192919061225f565b60405180910390a25050565b610c8561132c565b610c8f60006113b3565b565b60036020528060005260406000206000915090508054610cb090611b0b565b80601f0160208091040260200160405190810160405280929190818152602001828054610cdc90611b0b565b8015610d295780601f10610cfe57610100808354040283529160200191610d29565b820191906000526020600020905b815481529060010190602001808311610d0c57829003601f168201915b505050505081565b60026020528060005260406000206000915054906101000a900460ff1681565b6060600360008373ffffffffffffffffffffffffffffffffffffffff1673ffffffffffffffffffffffffffffffffffffffff1681526020019081526020016000208054610d9d90611b0b565b80601f0160208091040260200160405190810160405280929190818152602001828054610dc990611b0b565b8015610e165780601f10610deb57610100808354040283529160200191610e16565b820191906000526020600020905b815481529060010190602001808311610df957829003601f168201915b50505050509050919050565b60008060009054906101000a900473ffffffffffffffffffffffffffffffffffffffff16905090565b6000600260008373ffffffffffffffffffffffffffffffffffffffff1673ffffffffffffffffffffffffffffffffffffffff16815260200190815260200160002060009054906101000a900460ff169050919050565b60016020528060005260406000206000915054906101000a900460ff1681565b610ec9610e22565b73ffffffffffffffffffffffffffffffffffffffff163373ffffffffffffffffffffffffffffffffffffffff1614610f36576040517f08c379a0000000000000000000000000000000000000000000000000000000008152600401610f2d90612301565b60405180910390fd5b600160008273ffffffffffffffffffffffffffffffffffffffff1673ffffffffffffffffffffffffffffffffffffffff16815260200190815260200160002060009054906101000a900460ff1615610fc3576040517f08c379a0000000000000000000000000000000000000000000000000000000008152600401610fba9061236d565b60405180910390fd5b600260008273ffffffffffffffffffffffffffffffffffffffff1673ffffffffffffffffffffffffffffffffffffffff16815260200190815260200160002060009054906101000a900460ff1615611050576040517f08c379a0000000000000000000000000000000000000000000000000000000008152600401611047906123d9565b60405180910390fd5b6000600360008373ffffffffffffffffffffffffffffffffffffffff1673ffffffffffffffffffffffffffffffffffffffff168152602001908152602001600020805461109c90611b0b565b80601f01602080910402602001604051908101604052809291908181526020018280546110c890611b0b565b80156111155780601f106110ea57610100808354040283529160200191611115565b820191906000526020600020905b8154815290600101906020018083116110f857829003601f168201915b50505050509050600060405160200161112d9061198c565b604051602081830303815290604052805190602001208260405160200161115491906119d2565b60405160208183030381529060405280519060200120149050600060405160200161117e90611f0e565b60405160208183030381529060405280519060200120836040516020016111a591906119d2565b6040516020818303038152906040528051906020012014905081806111c75750805b611206576040517f08c379a00000000000000000000000000000000000000000000000000000000081526004016111fd9061246b565b60405180910390fd5b60018060008673ffffffffffffffffffffffffffffffffffffffff1673ffffffffffffffffffffffffffffffffffffffff16815260200190815260200160002060006101000a81548160ff0219169083151502179055508373ffffffffffffffffffffffffffffffffffffffff167fb0859f2cf042b300c8948cdd785ec6a23a3742bc5446c19f4b270b67fac2c96760405160405180910390a250505050565b6112ae61132c565b600073ffffffffffffffffffffffffffffffffffffffff168173ffffffffffffffffffffffffffffffffffffffff16036113205760006040517f1e4fbdf70000000000000000000000000000000000000000000000000000000081526004016113179190611888565b60405180910390fd5b611329816113b3565b50565b611334611477565b73ffffffffffffffffffffffffffffffffffffffff16611352610e22565b73ffffffffffffffffffffffffffffffffffffffff16146113b157611375611477565b6040517f118cdaa70000000000000000000000000000000000000000000000000000000081526004016113a89190611888565b60405180910390fd5b565b60008060009054906101000a900473ffffffffffffffffffffffffffffffffffffffff169050816000806101000a81548173ffffffffffffffffffffffffffffffffffffffff021916908373ffffffffffffffffffffffffffffffffffffffff1602179055508173ffffffffffffffffffffffffffffffffffffffff168173ffffffffffffffffffffffffffffffffffffffff167f8be0079c531659141344cd1fd0a4f28419497f9722a3daafe3b4186f6b6457e060405160405180910390a35050565b600033905090565b6000604051905090565b600080fd5b600080fd5b600073ffffffffffffffffffffffffffffffffffffffff82169050919050565b60006114be82611493565b9050919050565b6114ce816114b3565b81146114d957600080fd5b50565b6000813590506114eb816114c5565b92915050565b60006020828403121561150757611506611489565b5b6000611515848285016114dc565b91505092915050565b60008115159050919050565b6115338161151e565b82525050565b600060208201905061154e600083018461152a565b92915050565b600080fd5b600080fd5b6000601f19601f8301169050919050565b7f4e487b7100000000000000000000000000000000000000000000000000000000600052604160045260246000fd5b6115a78261155e565b810181811067ffffffffffffffff821117156115c6576115c561156f565b5b80604052505050565b60006115d961147f565b90506115e5828261159e565b919050565b600067ffffffffffffffff8211156116055761160461156f565b5b61160e8261155e565b9050602081019050919050565b82818337600083830152505050565b600061163d611638846115ea565b6115cf565b90508281526020810184848401111561165957611658611559565b5b61166484828561161b565b509392505050565b600082601f83011261168157611680611554565b5b813561169184826020860161162a565b91505092915050565b600080604083850312156116b1576116b0611489565b5b60006116bf858286016114dc565b925050602083013567ffffffffffffffff8111156116e0576116df61148e565b5b6116ec8582860161166c565b9150509250929050565b6000819050919050565b611709816116f6565b811461171457600080fd5b50565b60008135905061172681611700565b92915050565b6000806040838503121561174357611742611489565b5b600061175185828601611717565b925050602061176285828601611717565b9150509250929050565b6117758161151e565b811461178057600080fd5b50565b6000813590506117928161176c565b92915050565b600080604083850312156117af576117ae611489565b5b60006117bd858286016114dc565b92505060206117ce85828601611783565b9150509250929050565b600081519050919050565b600082825260208201905092915050565b60005b838110156118125780820151818401526020810190506117f7565b60008484015250505050565b6000611829826117d8565b61183381856117e3565b93506118438185602086016117f4565b61184c8161155e565b840191505092915050565b60006020820190508181036000830152611871818461181e565b905092915050565b611882816114b3565b82525050565b600060208201905061189d6000830184611879565b92915050565b7f4f6e6c792074686520636f6e7472616374206f776e65722063616e207265676960008201527f737465722075736572732e000000000000000000000000000000000000000000602082015250565b60006118ff602b836117e3565b915061190a826118a3565b604082019050919050565b6000602082019050818103600083015261192e816118f2565b9050919050565b600081905092915050565b7f646f63746f720000000000000000000000000000000000000000000000000000600082015250565b6000611976600683611935565b915061198182611940565b600682019050919050565b600061199782611969565b9150819050919050565b60006119ac826117d8565b6119b68185611935565b93506119c68185602086016117f4565b80840191505092915050565b60006119de82846119a1565b915081905092915050565b7f70617469656e7400000000000000000000000000000000000000000000000000600082015250565b6000611a1f600783611935565b9150611a2a826119e9565b600782019050919050565b6000611a4082611a12565b9150819050919050565b7f496e76616c6964207573657220747970652e204d7573742062652027646f637460008201527f6f7227206f72202770617469656e74272e000000000000000000000000000000602082015250565b6000611aa66031836117e3565b9150611ab182611a4a565b604082019050919050565b60006020820190508181036000830152611ad581611a99565b9050919050565b7f4e487b7100000000000000000000000000000000000000000000000000000000600052602260045260246000fd5b60006002820490506001821680611b2357607f821691505b602082108103611b3657611b35611adc565b5b50919050565b60008190508160005260206000209050919050565b60006020601f8301049050919050565b600082821b905092915050565b600060088302611b9e7fffffffffffffffffffffffffffffffffffffffffffffffffffffffffffffffff82611b61565b611ba88683611b61565b95508019841693508086168417925050509392505050565b6000819050919050565b6000819050919050565b6000611bef611bea611be584611bc0565b611bca565b611bc0565b9050919050565b6000819050919050565b611c0983611bd4565b611c1d611c1582611bf6565b848454611b6e565b825550505050565b600090565b611c32611c25565b611c3d818484611c00565b505050565b5b81811015611c6157611c56600082611c2a565b600181019050611c43565b5050565b601f821115611ca657611c7781611b3c565b611c8084611b51565b81016020851015611c8f578190505b611ca3611c9b85611b51565b830182611c42565b50505b505050565b600082821c905092915050565b6000611cc960001984600802611cab565b1980831691505092915050565b6000611ce28383611cb8565b9150826002028217905092915050565b611cfb826117d8565b67ffffffffffffffff811115611d1457611d1361156f565b5b611d1e8254611b0b565b611d29828285611c65565b600060209050601f831160018114611d5c5760008415611d4a578287015190505b611d548582611cd6565b865550611dbc565b601f198416611d6a86611b3c565b60005b82811015611d9257848901518255600182019150602085019450602081019050611d6d565b86831015611daf5784890151611dab601f891682611cb8565b8355505b6001600288020188555050505b505050505050565b7f4f6e6c7920766572696669656420646f63746f72732063616e206c6f6720636f60008201527f6e73756c746174696f6e732e0000000000000000000000000000000000000000602082015250565b6000611e20602c836117e3565b9150611e2b82611dc4565b604082019050919050565b60006020820190508181036000830152611e4f81611e13565b9050919050565b7f42616e6e656420646f63746f72732063616e6e6f74206c6f6720636f6e73756c60008201527f746174696f6e732e000000000000000000000000000000000000000000000000602082015250565b6000611eb26028836117e3565b9150611ebd82611e56565b604082019050919050565b60006020820190508181036000830152611ee181611ea5565b9050919050565b50565b6000611ef8600083611935565b9150611f0382611ee8565b600082019050919050565b6000611f1982611eeb565b9150819050919050565b7f4f6e6c7920646f63746f72732063616e206c6f6720636f6e73756c746174696f60008201527f6e732e0000000000000000000000000000000000000000000000000000000000602082015250565b6000611f7f6023836117e3565b9150611f8a82611f23565b604082019050919050565b60006020820190508181036000830152611fae81611f72565b9050919050565b611fbe81611bc0565b82525050565b6000602082019050611fd96000830184611fb5565b92915050565b7f4f6e6c792074686520636f6e7472616374206f776e65722063616e207265766f60008201527f6b6520766572696669636174696f6e2e00000000000000000000000000000000602082015250565b600061203b6030836117e3565b915061204682611fdf565b604082019050919050565b6000602082019050818103600083015261206a8161202e565b9050919050565b7f446f63746f72206973206e6f742076657269666965642e000000000000000000600082015250565b60006120a76017836117e3565b91506120b282612071565b602082019050919050565b600060208201905081810360008301526120d68161209a565b9050919050565b7f4f6e6c792074686520636f6e7472616374206f776e65722063616e2062616e2f60008201527f756e62616e2075736572732e0000000000000000000000000000000000000000602082015250565b6000612139602c836117e3565b9150612144826120dd565b604082019050919050565b600060208201905081810360008301526121688161212c565b9050919050565b7f43616e6e6f742062616e2074686520636f6e7472616374206f776e65722e0000600082015250565b60006121a5601e836117e3565b91506121b08261216f565b602082019050919050565b600060208201905081810360008301526121d481612198565b9050919050565b600081546121e881611b0b565b6121f281866117e3565b9450600182166000811461220d576001811461222357612256565b60ff198316865281151560200286019350612256565b61222c85611b3c565b60005b8381101561224e5781548189015260018201915060208101905061222f565b808801955050505b50505092915050565b6000604082019050612274600083018561152a565b818103602083015261228681846121db565b90509392505050565b7f4f6e6c792074686520636f6e7472616374206f776e65722063616e207665726960008201527f667920646f63746f72732e000000000000000000000000000000000000000000602082015250565b60006122eb602b836117e3565b91506122f68261228f565b604082019050919050565b6000602082019050818103600083015261231a816122de565b9050919050565b7f446f63746f7220697320616c72656164792076657269666965642e0000000000600082015250565b6000612357601b836117e3565b915061236282612321565b602082019050919050565b600060208201905081810360008301526123868161234a565b9050919050565b7f43616e6e6f74207665726966792062616e6e65642075736572732e0000000000600082015250565b60006123c3601b836117e3565b91506123ce8261238d565b602082019050919050565b600060208201905081810360008301526123f2816123b6565b9050919050565b7f41646472657373206d757374206265207265676973746572656420617320612060008201527f646f63746f722e00000000000000000000000000000000000000000000000000602082015250565b60006124556027836117e3565b9150612460826123f9565b604082019050919050565b6000602082019050818103600083015261248481612448565b905091905056fea2646970667358221220c1420dba88b5464f0618ece112e857c615d63055f9959f22eb8a66af428a2f4a64736f6c63430008140033",
  "linkReferences": {},
  "deployedLinkReferences": {}
}